{
  "_format": "hh-sol-artifact-1",
  "contractName": "Voting",
  "sourceName": "contracts/Voting.sol",
  "abi": [
    {
      "inputs": [],
      "stateMutability": "nonpayable",
      "type": "constructor"
    },
    {
      "anonymous": false,
      "inputs": [
        {
          "indexed": false,
          "internalType": "string",
          "name": "name",
          "type": "string"
        }
      ],
      "name": "CandidateAdded",
      "type": "event"
    },
    {
      "anonymous": false,
      "inputs": [
        {
          "indexed": false,
          "internalType": "address",
          "name": "voter",
          "type": "address"
        },
        {
          "indexed": false,
          "internalType": "uint256",
          "name": "candidateNum",
          "type": "uint256"
        }
      ],
      "name": "VoteCast",
      "type": "event"
    },
    {
      "inputs": [
        {
          "internalType": "string",
          "name": "_name",
          "type": "string"
        }
      ],
      "name": "addCandidate",
      "outputs": [],
      "stateMutability": "nonpayable",
      "type": "function"
    },
    {
      "inputs": [
        {
          "internalType": "uint256",
          "name": "",
          "type": "uint256"
        }
      ],
      "name": "candidates",
      "outputs": [
        {
          "internalType": "string",
          "name": "name",
          "type": "string"
        },
        {
          "internalType": "uint256",
          "name": "voteCount",
          "type": "uint256"
        }
      ],
      "stateMutability": "view",
      "type": "function"
    },
    {
      "inputs": [],
      "name": "candidatesCount",
      "outputs": [
        {
          "internalType": "uint256",
          "name": "",
          "type": "uint256"
        }
      ],
      "stateMutability": "view",
      "type": "function"
    },
    {
      "inputs": [],
      "name": "owner",
      "outputs": [
        {
          "internalType": "address",
          "name": "",
          "type": "address"
        }
      ],
      "stateMutability": "view",
      "type": "function"
    },
    {
      "inputs": [
        {
          "internalType": "uint256",
          "name": "_candidateNum",
          "type": "uint256"
        }
      ],
      "name": "vote",
      "outputs": [],
      "stateMutability": "nonpayable",
      "type": "function"
    },
    {
      "inputs": [
        {
          "internalType": "address",
          "name": "",
          "type": "address"
        }
      ],
      "name": "voters",
      "outputs": [
        {
          "internalType": "bool",
          "name": "",
          "type": "bool"
        }
      ],
      "stateMutability": "view",
      "type": "function"
    }
  ],
  "bytecode": "0x608060405234801561001057600080fd5b5033600360006101000a81548173ffffffffffffffffffffffffffffffffffffffff021916908373ffffffffffffffffffffffffffffffffffffffff160217905550610dfc806100616000396000f3fe608060405234801561001057600080fd5b50600436106100625760003560e01c80630121b93f146100675780632d35a8a2146100835780633477ee2e146100a1578063462e91ec146100d25780638da5cb5b146100ee578063a3ec138d1461010c575b600080fd5b610081600480360381019061007c919061053c565b61013c565b005b61008b6102cb565b6040516100989190610578565b60405180910390f35b6100bb60048036038101906100b6919061053c565b6102d1565b6040516100c9929190610623565b60405180910390f35b6100ec60048036038101906100e79190610788565b61037d565b005b6100f66104ac565b6040516101039190610812565b60405180910390f35b61012660048036038101906101219190610859565b6104d2565b60405161013391906108a1565b60405180910390f35b600160003373ffffffffffffffffffffffffffffffffffffffff1673ffffffffffffffffffffffffffffffffffffffff16815260200190815260200160002060009054906101000a900460ff16156101c9576040517f08c379a00000000000000000000000000000000000000000000000000000000081526004016101c090610908565b60405180910390fd5b600254811061020d576040517f08c379a000000000000000000000000000000000000000000000000000000000815260040161020490610974565b60405180910390fd5b6000808281526020019081526020016000206001016000815480929190610233906109c3565b919050555060018060003373ffffffffffffffffffffffffffffffffffffffff1673ffffffffffffffffffffffffffffffffffffffff16815260200190815260200160002060006101000a81548160ff0219169083151502179055507fa36cc2bebb74db33e9f88110a07ef56e1b31b24b4c4f51b54b1664266e29f45b33826040516102c0929190610a0b565b60405180910390a150565b60025481565b60006020528060005260406000206000915090508060000180546102f490610a63565b80601f016020809104026020016040519081016040528092919081815260200182805461032090610a63565b801561036d5780601f106103425761010080835404028352916020019161036d565b820191906000526020600020905b81548152906001019060200180831161035057829003601f168201915b5050505050908060010154905082565b3373ffffffffffffffffffffffffffffffffffffffff16600360009054906101000a900473ffffffffffffffffffffffffffffffffffffffff1673ffffffffffffffffffffffffffffffffffffffff161461040d576040517f08c379a000000000000000000000000000000000000000000000000000000000815260040161040490610b06565b60405180910390fd5b604051806040016040528082815260200160008152506000806002548152602001908152602001600020600082015181600001908161044c9190610cd2565b50602082015181600101559050506002600081548092919061046d906109c3565b91905055507ff29562dad1599aea0ebb142466120aab326d5efa8f839df82a9c064bf78e8938816040516104a19190610da4565b60405180910390a150565b600360009054906101000a900473ffffffffffffffffffffffffffffffffffffffff1681565b60016020528060005260406000206000915054906101000a900460ff1681565b6000604051905090565b600080fd5b600080fd5b6000819050919050565b61051981610506565b811461052457600080fd5b50565b60008135905061053681610510565b92915050565b600060208284031215610552576105516104fc565b5b600061056084828501610527565b91505092915050565b61057281610506565b82525050565b600060208201905061058d6000830184610569565b92915050565b600081519050919050565b600082825260208201905092915050565b60005b838110156105cd5780820151818401526020810190506105b2565b60008484015250505050565b6000601f19601f8301169050919050565b60006105f582610593565b6105ff818561059e565b935061060f8185602086016105af565b610618816105d9565b840191505092915050565b6000604082019050818103600083015261063d81856105ea565b905061064c6020830184610569565b9392505050565b600080fd5b600080fd5b7f4e487b7100000000000000000000000000000000000000000000000000000000600052604160045260246000fd5b610695826105d9565b810181811067ffffffffffffffff821117156106b4576106b361065d565b5b80604052505050565b60006106c76104f2565b90506106d3828261068c565b919050565b600067ffffffffffffffff8211156106f3576106f261065d565b5b6106fc826105d9565b9050602081019050919050565b82818337600083830152505050565b600061072b610726846106d8565b6106bd565b90508281526020810184848401111561074757610746610658565b5b610752848285610709565b509392505050565b600082601f83011261076f5761076e610653565b5b813561077f848260208601610718565b91505092915050565b60006020828403121561079e5761079d6104fc565b5b600082013567ffffffffffffffff8111156107bc576107bb610501565b5b6107c88482850161075a565b91505092915050565b600073ffffffffffffffffffffffffffffffffffffffff82169050919050565b60006107fc826107d1565b9050919050565b61080c816107f1565b82525050565b60006020820190506108276000830184610803565b92915050565b610836816107f1565b811461084157600080fd5b50565b6000813590506108538161082d565b92915050565b60006020828403121561086f5761086e6104fc565b5b600061087d84828501610844565b91505092915050565b60008115159050919050565b61089b81610886565b82525050565b60006020820190506108b66000830184610892565b92915050565b7f596f75206861766520616c726561647920766f74656400000000000000000000600082015250565b60006108f260168361059e565b91506108fd826108bc565b602082019050919050565b60006020820190508181036000830152610921816108e5565b9050919050565b7f496e76616c69642063616e646964617465206e756d6265720000000000000000600082015250565b600061095e60188361059e565b915061096982610928565b602082019050919050565b6000602082019050818103600083015261098d81610951565b9050919050565b7f4e487b7100000000000000000000000000000000000000000000000000000000600052601160045260246000fd5b60006109ce82610506565b91507fffffffffffffffffffffffffffffffffffffffffffffffffffffffffffffffff8203610a00576109ff610994565b5b600182019050919050565b6000604082019050610a206000830185610803565b610a2d6020830184610569565b9392505050565b7f4e487b7100000000000000000000000000000000000000000000000000000000600052602260045260246000fd5b60006002820490506001821680610a7b57607f821691505b602082108103610a8e57610a8d610a34565b5b50919050565b7f4f6e6c79206f776e65722063616e20657865637574652074686973206f70657260008201527f6174696f6e000000000000000000000000000000000000000000000000000000602082015250565b6000610af060258361059e565b9150610afb82610a94565b604082019050919050565b60006020820190508181036000830152610b1f81610ae3565b9050919050565b60008190508160005260206000209050919050565b60006020601f8301049050919050565b600082821b905092915050565b600060088302610b887fffffffffffffffffffffffffffffffffffffffffffffffffffffffffffffffff82610b4b565b610b928683610b4b565b95508019841693508086168417925050509392505050565b6000819050919050565b6000610bcf610bca610bc584610506565b610baa565b610506565b9050919050565b6000819050919050565b610be983610bb4565b610bfd610bf582610bd6565b848454610b58565b825550505050565b600090565b610c12610c05565b610c1d818484610be0565b505050565b5b81811015610c4157610c36600082610c0a565b600181019050610c23565b5050565b601f821115610c8657610c5781610b26565b610c6084610b3b565b81016020851015610c6f578190505b610c83610c7b85610b3b565b830182610c22565b50505b505050565b600082821c905092915050565b6000610ca960001984600802610c8b565b1980831691505092915050565b6000610cc28383610c98565b9150826002028217905092915050565b610cdb82610593565b67ffffffffffffffff811115610cf457610cf361065d565b5b610cfe8254610a63565b610d09828285610c45565b600060209050601f831160018114610d3c5760008415610d2a578287015190505b610d348582610cb6565b865550610d9c565b601f198416610d4a86610b26565b60005b82811015610d7257848901518255600182019150602085019450602081019050610d4d565b86831015610d8f5784890151610d8b601f891682610c98565b8355505b6001600288020188555050505b505050505050565b60006020820190508181036000830152610dbe81846105ea565b90509291505056fea2646970667358221220bb69cfad2083c156eb7f3a2c2f6a2011b1c676a2c9a8e4eb8ad064e1ee53461964736f6c63430008180033",
  "linkReferences": {},
  "deployedLinkReferences": {}
}