{
  "_format": "hh-sol-artifact-1",
  "contractName": "Voting",
  "sourceName": "contracts/Voting.sol",
  "abi": [
    {
      "inputs": [],
      "stateMutability": "nonpayable",
      "type": "constructor"
    },
    {
      "inputs": [
        {
          "internalType": "string",
          "name": "_name",
          "type": "string"
        }
      ],
      "name": "addCandidate",
      "outputs": [],
      "stateMutability": "nonpayable",
      "type": "function"
    },
    {
      "inputs": [
        {
          "internalType": "uint256",
          "name": "",
          "type": "uint256"
        }
      ],
      "name": "candidates",
      "outputs": [
        {
          "internalType": "string",
          "name": "name",
          "type": "string"
        },
        {
          "internalType": "uint256",
          "name": "voteCount",
          "type": "uint256"
        }
      ],
      "stateMutability": "view",
      "type": "function"
    },
    {
      "inputs": [],
      "name": "candidatesCount",
      "outputs": [
        {
          "internalType": "uint256",
          "name": "",
          "type": "uint256"
        }
      ],
      "stateMutability": "view",
      "type": "function"
    },
    {
      "inputs": [],
      "name": "owner",
      "outputs": [
        {
          "internalType": "address",
          "name": "",
          "type": "address"
        }
      ],
      "stateMutability": "view",
      "type": "function"
    },
    {
      "inputs": [
        {
          "internalType": "uint256",
          "name": "_candidateNum",
          "type": "uint256"
        }
      ],
      "name": "vote",
      "outputs": [],
      "stateMutability": "nonpayable",
      "type": "function"
    },
    {
      "inputs": [
        {
          "internalType": "address",
          "name": "",
          "type": "address"
        }
      ],
      "name": "voters",
      "outputs": [
        {
          "internalType": "bool",
          "name": "",
          "type": "bool"
        }
      ],
      "stateMutability": "view",
      "type": "function"
    }
  ],
  "bytecode": "0x608060405234801561001057600080fd5b5033600360006101000a81548173ffffffffffffffffffffffffffffffffffffffff021916908373ffffffffffffffffffffffffffffffffffffffff160217905550610c1f806100616000396000f3fe608060405234801561001057600080fd5b50600436106100625760003560e01c80630121b93f146100675780632d35a8a2146100835780633477ee2e146100a1578063462e91ec146100d25780638da5cb5b146100ee578063a3ec138d1461010c575b600080fd5b610081600480360381019061007c919061043c565b61013c565b005b61008b610292565b6040516100989190610478565b60405180910390f35b6100bb60048036038101906100b6919061043c565b610298565b6040516100c9929190610523565b60405180910390f35b6100ec60048036038101906100e79190610688565b610344565b005b6100f66103ac565b6040516101039190610712565b60405180910390f35b61012660048036038101906101219190610759565b6103d2565b60405161013391906107a1565b60405180910390f35b600160003373ffffffffffffffffffffffffffffffffffffffff1673ffffffffffffffffffffffffffffffffffffffff16815260200190815260200160002060009054906101000a900460ff16156101c9576040517f08c379a00000000000000000000000000000000000000000000000000000000081526004016101c090610808565b60405180910390fd5b600254811061020d576040517f08c379a000000000000000000000000000000000000000000000000000000000815260040161020490610874565b60405180910390fd5b6000808281526020019081526020016000206001016000815480929190610233906108c3565b919050555060018060003373ffffffffffffffffffffffffffffffffffffffff1673ffffffffffffffffffffffffffffffffffffffff16815260200190815260200160002060006101000a81548160ff02191690831515021790555050565b60025481565b60006020528060005260406000206000915090508060000180546102bb9061093a565b80601f01602080910402602001604051908101604052809291908181526020018280546102e79061093a565b80156103345780601f1061030957610100808354040283529160200191610334565b820191906000526020600020905b81548152906001019060200180831161031757829003601f168201915b5050505050908060010154905082565b60405180604001604052808281526020016000815250600080600254815260200190815260200160002060008201518160000190816103839190610b17565b5060208201518160010155905050600260008154809291906103a4906108c3565b919050555050565b600360009054906101000a900473ffffffffffffffffffffffffffffffffffffffff1681565b60016020528060005260406000206000915054906101000a900460ff1681565b6000604051905090565b600080fd5b600080fd5b6000819050919050565b61041981610406565b811461042457600080fd5b50565b60008135905061043681610410565b92915050565b600060208284031215610452576104516103fc565b5b600061046084828501610427565b91505092915050565b61047281610406565b82525050565b600060208201905061048d6000830184610469565b92915050565b600081519050919050565b600082825260208201905092915050565b60005b838110156104cd5780820151818401526020810190506104b2565b60008484015250505050565b6000601f19601f8301169050919050565b60006104f582610493565b6104ff818561049e565b935061050f8185602086016104af565b610518816104d9565b840191505092915050565b6000604082019050818103600083015261053d81856104ea565b905061054c6020830184610469565b9392505050565b600080fd5b600080fd5b7f4e487b7100000000000000000000000000000000000000000000000000000000600052604160045260246000fd5b610595826104d9565b810181811067ffffffffffffffff821117156105b4576105b361055d565b5b80604052505050565b60006105c76103f2565b90506105d3828261058c565b919050565b600067ffffffffffffffff8211156105f3576105f261055d565b5b6105fc826104d9565b9050602081019050919050565b82818337600083830152505050565b600061062b610626846105d8565b6105bd565b90508281526020810184848401111561064757610646610558565b5b610652848285610609565b509392505050565b600082601f83011261066f5761066e610553565b5b813561067f848260208601610618565b91505092915050565b60006020828403121561069e5761069d6103fc565b5b600082013567ffffffffffffffff8111156106bc576106bb610401565b5b6106c88482850161065a565b91505092915050565b600073ffffffffffffffffffffffffffffffffffffffff82169050919050565b60006106fc826106d1565b9050919050565b61070c816106f1565b82525050565b60006020820190506107276000830184610703565b92915050565b610736816106f1565b811461074157600080fd5b50565b6000813590506107538161072d565b92915050565b60006020828403121561076f5761076e6103fc565b5b600061077d84828501610744565b91505092915050565b60008115159050919050565b61079b81610786565b82525050565b60006020820190506107b66000830184610792565b92915050565b7f596f75206861766520616c726561647920766f74656400000000000000000000600082015250565b60006107f260168361049e565b91506107fd826107bc565b602082019050919050565b60006020820190508181036000830152610821816107e5565b9050919050565b7f496e76616c69642063616e646964617465206e756d6265720000000000000000600082015250565b600061085e60188361049e565b915061086982610828565b602082019050919050565b6000602082019050818103600083015261088d81610851565b9050919050565b7f4e487b7100000000000000000000000000000000000000000000000000000000600052601160045260246000fd5b60006108ce82610406565b91507fffffffffffffffffffffffffffffffffffffffffffffffffffffffffffffffff8203610900576108ff610894565b5b600182019050919050565b7f4e487b7100000000000000000000000000000000000000000000000000000000600052602260045260246000fd5b6000600282049050600182168061095257607f821691505b6020821081036109655761096461090b565b5b50919050565b60008190508160005260206000209050919050565b60006020601f8301049050919050565b600082821b905092915050565b6000600883026109cd7fffffffffffffffffffffffffffffffffffffffffffffffffffffffffffffffff82610990565b6109d78683610990565b95508019841693508086168417925050509392505050565b6000819050919050565b6000610a14610a0f610a0a84610406565b6109ef565b610406565b9050919050565b6000819050919050565b610a2e836109f9565b610a42610a3a82610a1b565b84845461099d565b825550505050565b600090565b610a57610a4a565b610a62818484610a25565b505050565b5b81811015610a8657610a7b600082610a4f565b600181019050610a68565b5050565b601f821115610acb57610a9c8161096b565b610aa584610980565b81016020851015610ab4578190505b610ac8610ac085610980565b830182610a67565b50505b505050565b600082821c905092915050565b6000610aee60001984600802610ad0565b1980831691505092915050565b6000610b078383610add565b9150826002028217905092915050565b610b2082610493565b67ffffffffffffffff811115610b3957610b3861055d565b5b610b43825461093a565b610b4e828285610a8a565b600060209050601f831160018114610b815760008415610b6f578287015190505b610b798582610afb565b865550610be1565b601f198416610b8f8661096b565b60005b82811015610bb757848901518255600182019150602085019450602081019050610b92565b86831015610bd45784890151610bd0601f891682610add565b8355505b6001600288020188555050505b50505050505056fea26469706673582212209794fb0497efb824e50b038cc37bedf3685081f7f8158b148c01252fe5b5e85c64736f6c63430008180033",
  "linkReferences": {},
  "deployedLinkReferences": {}
}