{
  "_format": "hh-sol-artifact-1",
  "contractName": "Voting",
  "sourceName": "contracts/Voting.sol",
  "abi": [
    {
      "inputs": [],
      "stateMutability": "nonpayable",
      "type": "constructor"
    },
    {
      "inputs": [
        {
          "internalType": "string",
          "name": "_name",
          "type": "string"
        },
        {
          "internalType": "string",
          "name": "_manifestoIpfsHash",
          "type": "string"
        },
        {
          "internalType": "string",
          "name": "_imageIpfsHash",
          "type": "string"
        }
      ],
      "name": "addCandidate",
      "outputs": [],
      "stateMutability": "nonpayable",
      "type": "function"
    },
    {
      "inputs": [
        {
          "internalType": "uint256",
          "name": "",
          "type": "uint256"
        }
      ],
      "name": "candidates",
      "outputs": [
        {
          "internalType": "string",
          "name": "name",
          "type": "string"
        },
        {
          "internalType": "string",
          "name": "manifestoIpfsHash",
          "type": "string"
        },
        {
          "internalType": "string",
          "name": "imageIpfsHash",
          "type": "string"
        },
        {
          "internalType": "uint256",
          "name": "voteCount",
          "type": "uint256"
        }
      ],
      "stateMutability": "view",
      "type": "function"
    },
    {
      "inputs": [],
      "name": "candidatesCount",
      "outputs": [
        {
          "internalType": "uint256",
          "name": "",
          "type": "uint256"
        }
      ],
      "stateMutability": "view",
      "type": "function"
    },
    {
      "inputs": [],
      "name": "getNumberOfCandidates",
      "outputs": [
        {
          "internalType": "uint256",
          "name": "",
          "type": "uint256"
        }
      ],
      "stateMutability": "view",
      "type": "function"
    },
    {
      "inputs": [],
      "name": "getOwner",
      "outputs": [
        {
          "internalType": "address",
          "name": "",
          "type": "address"
        }
      ],
      "stateMutability": "view",
      "type": "function"
    },
    {
      "inputs": [],
      "name": "owner",
      "outputs": [
        {
          "internalType": "address",
          "name": "",
          "type": "address"
        }
      ],
      "stateMutability": "view",
      "type": "function"
    },
    {
      "inputs": [
        {
          "internalType": "uint256",
          "name": "_candidateNum",
          "type": "uint256"
        }
      ],
      "name": "vote",
      "outputs": [],
      "stateMutability": "nonpayable",
      "type": "function"
    },
    {
      "inputs": [
        {
          "internalType": "address",
          "name": "",
          "type": "address"
        }
      ],
      "name": "voters",
      "outputs": [
        {
          "internalType": "bool",
          "name": "",
          "type": "bool"
        }
      ],
      "stateMutability": "view",
      "type": "function"
    }
  ],
  "bytecode": "0x608060405234801561001057600080fd5b5033600360006101000a81548173ffffffffffffffffffffffffffffffffffffffff021916908373ffffffffffffffffffffffffffffffffffffffff160217905550610fb7806100616000396000f3fe608060405234801561001057600080fd5b50600436106100885760003560e01c8063893d20e81161005b578063893d20e8146101185780638da5cb5b14610136578063a3ec138d14610154578063ad71f8dc1461018457610088565b80630121b93f1461008d5780632d35a8a2146100a95780633477ee2e146100c75780637a84d13e146100fa575b600080fd5b6100a760048036038101906100a291906106ba565b6101a0565b005b6100b16102f6565b6040516100be91906106f6565b60405180910390f35b6100e160048036038101906100dc91906106ba565b6102fc565b6040516100f194939291906107a1565b60405180910390f35b6101026104c4565b60405161010f91906106f6565b60405180910390f35b6101206104ce565b60405161012d919061083c565b60405180910390f35b61013e6104f8565b60405161014b919061083c565b60405180910390f35b61016e60048036038101906101699190610883565b61051e565b60405161017b91906108cb565b60405180910390f35b61019e60048036038101906101999190610a1b565b61053e565b005b600160003373ffffffffffffffffffffffffffffffffffffffff1673ffffffffffffffffffffffffffffffffffffffff16815260200190815260200160002060009054906101000a900460ff161561022d576040517f08c379a000000000000000000000000000000000000000000000000000000000815260040161022490610b0e565b60405180910390fd5b6002548110610271576040517f08c379a000000000000000000000000000000000000000000000000000000000815260040161026890610b7a565b60405180910390fd5b600080828152602001908152602001600020600301600081548092919061029790610bc9565b919050555060018060003373ffffffffffffffffffffffffffffffffffffffff1673ffffffffffffffffffffffffffffffffffffffff16815260200190815260200160002060006101000a81548160ff02191690831515021790555050565b60025481565b600060205280600052604060002060009150905080600001805461031f90610c40565b80601f016020809104026020016040519081016040528092919081815260200182805461034b90610c40565b80156103985780601f1061036d57610100808354040283529160200191610398565b820191906000526020600020905b81548152906001019060200180831161037b57829003601f168201915b5050505050908060010180546103ad90610c40565b80601f01602080910402602001604051908101604052809291908181526020018280546103d990610c40565b80156104265780601f106103fb57610100808354040283529160200191610426565b820191906000526020600020905b81548152906001019060200180831161040957829003601f168201915b50505050509080600201805461043b90610c40565b80601f016020809104026020016040519081016040528092919081815260200182805461046790610c40565b80156104b45780601f10610489576101008083540402835291602001916104b4565b820191906000526020600020905b81548152906001019060200180831161049757829003601f168201915b5050505050908060030154905084565b6000600254905090565b6000600360009054906101000a900473ffffffffffffffffffffffffffffffffffffffff16905090565b600360009054906101000a900473ffffffffffffffffffffffffffffffffffffffff1681565b60016020528060005260406000206000915054906101000a900460ff1681565b3373ffffffffffffffffffffffffffffffffffffffff16600360009054906101000a900473ffffffffffffffffffffffffffffffffffffffff1673ffffffffffffffffffffffffffffffffffffffff16146105ce576040517f08c379a00000000000000000000000000000000000000000000000000000000081526004016105c590610ce3565b60405180910390fd5b60405180608001604052808481526020018381526020018281526020016000815250600080600254815260200190815260200160002060008201518160000190816106199190610eaf565b50602082015181600101908161062f9190610eaf565b5060408201518160020190816106459190610eaf565b50606082015181600301559050506002600081548092919061066690610bc9565b9190505550505050565b6000604051905090565b600080fd5b600080fd5b6000819050919050565b61069781610684565b81146106a257600080fd5b50565b6000813590506106b48161068e565b92915050565b6000602082840312156106d0576106cf61067a565b5b60006106de848285016106a5565b91505092915050565b6106f081610684565b82525050565b600060208201905061070b60008301846106e7565b92915050565b600081519050919050565b600082825260208201905092915050565b60005b8381101561074b578082015181840152602081019050610730565b60008484015250505050565b6000601f19601f8301169050919050565b600061077382610711565b61077d818561071c565b935061078d81856020860161072d565b61079681610757565b840191505092915050565b600060808201905081810360008301526107bb8187610768565b905081810360208301526107cf8186610768565b905081810360408301526107e38185610768565b90506107f260608301846106e7565b95945050505050565b600073ffffffffffffffffffffffffffffffffffffffff82169050919050565b6000610826826107fb565b9050919050565b6108368161081b565b82525050565b6000602082019050610851600083018461082d565b92915050565b6108608161081b565b811461086b57600080fd5b50565b60008135905061087d81610857565b92915050565b6000602082840312156108995761089861067a565b5b60006108a78482850161086e565b91505092915050565b60008115159050919050565b6108c5816108b0565b82525050565b60006020820190506108e060008301846108bc565b92915050565b600080fd5b600080fd5b7f4e487b7100000000000000000000000000000000000000000000000000000000600052604160045260246000fd5b61092882610757565b810181811067ffffffffffffffff82111715610947576109466108f0565b5b80604052505050565b600061095a610670565b9050610966828261091f565b919050565b600067ffffffffffffffff821115610986576109856108f0565b5b61098f82610757565b9050602081019050919050565b82818337600083830152505050565b60006109be6109b98461096b565b610950565b9050828152602081018484840111156109da576109d96108eb565b5b6109e584828561099c565b509392505050565b600082601f830112610a0257610a016108e6565b5b8135610a128482602086016109ab565b91505092915050565b600080600060608486031215610a3457610a3361067a565b5b600084013567ffffffffffffffff811115610a5257610a5161067f565b5b610a5e868287016109ed565b935050602084013567ffffffffffffffff811115610a7f57610a7e61067f565b5b610a8b868287016109ed565b925050604084013567ffffffffffffffff811115610aac57610aab61067f565b5b610ab8868287016109ed565b9150509250925092565b7f596f75206861766520616c726561647920766f74656421000000000000000000600082015250565b6000610af860178361071c565b9150610b0382610ac2565b602082019050919050565b60006020820190508181036000830152610b2781610aeb565b9050919050565b7f496e76616c69642063616e646964617465206e756d6265722100000000000000600082015250565b6000610b6460198361071c565b9150610b6f82610b2e565b602082019050919050565b60006020820190508181036000830152610b9381610b57565b9050919050565b7f4e487b7100000000000000000000000000000000000000000000000000000000600052601160045260246000fd5b6000610bd482610684565b91507fffffffffffffffffffffffffffffffffffffffffffffffffffffffffffffffff8203610c0657610c05610b9a565b5b600182019050919050565b7f4e487b7100000000000000000000000000000000000000000000000000000000600052602260045260246000fd5b60006002820490506001821680610c5857607f821691505b602082108103610c6b57610c6a610c11565b5b50919050565b7f4f6e6c79204f776e65722063616e20657865637574652074686973206f70657260008201527f6174696f6e000000000000000000000000000000000000000000000000000000602082015250565b6000610ccd60258361071c565b9150610cd882610c71565b604082019050919050565b60006020820190508181036000830152610cfc81610cc0565b9050919050565b60008190508160005260206000209050919050565b60006020601f8301049050919050565b600082821b905092915050565b600060088302610d657fffffffffffffffffffffffffffffffffffffffffffffffffffffffffffffffff82610d28565b610d6f8683610d28565b95508019841693508086168417925050509392505050565b6000819050919050565b6000610dac610da7610da284610684565b610d87565b610684565b9050919050565b6000819050919050565b610dc683610d91565b610dda610dd282610db3565b848454610d35565b825550505050565b600090565b610def610de2565b610dfa818484610dbd565b505050565b5b81811015610e1e57610e13600082610de7565b600181019050610e00565b5050565b601f821115610e6357610e3481610d03565b610e3d84610d18565b81016020851015610e4c578190505b610e60610e5885610d18565b830182610dff565b50505b505050565b600082821c905092915050565b6000610e8660001984600802610e68565b1980831691505092915050565b6000610e9f8383610e75565b9150826002028217905092915050565b610eb882610711565b67ffffffffffffffff811115610ed157610ed06108f0565b5b610edb8254610c40565b610ee6828285610e22565b600060209050601f831160018114610f195760008415610f07578287015190505b610f118582610e93565b865550610f79565b601f198416610f2786610d03565b60005b82811015610f4f57848901518255600182019150602085019450602081019050610f2a565b86831015610f6c5784890151610f68601f891682610e75565b8355505b6001600288020188555050505b50505050505056fea26469706673582212205b5e1fc5789c7cf9f2dbabe9a53d786012146f2af9c1ff3a9199a3b373f5763764736f6c63430008180033",
  "linkReferences": {},
  "deployedLinkReferences": {}
}